:100000000C9446000C9450000C9450000C9450003A
:100010000C9450000C9450000C9450000C94500020
:100020000C9450000C9450000C9450000C94500010
:100030000C9450000C9450000C9450000C94500000
:100040000C9450000C9450000C9450000C945000F0
:100050000C9450000C9450000C9450000C945000E0
:100060000C9450000C9450000C9450000C945000D0
:100070000C9450000C9450000C9450000C945000C0
:100080000C9450000C9450000C94500011241FBE8E
:10009000CFEFD0E1DEBFCDBF0E943F010C945901EC
:1000A0000C94000080E885BF94E490936D008093E9
:1000B0006C0080EF87BB18BA11BA12BA8FEF82B901
:1000C00013B810926100109262008FE18093640077
:1000D0001092002110920020089590E007C00F9226
:1000E0000F900F920F900F920F909F5F9817B8F399
:1000F00008950F931F93CF93DF938C01C0E0D0E05E
:100100000DC08AEF0E946D008AEF0E946D008AEF99
:100110000E946D008AEF0E946D002196C017D107E2
:1001200080F3DF91CF911F910F910895809300206C
:100130000F920F901092002182E30E946D000895AB
:10014000809300200F920F9082E08093002182E341
:100150000E946D000895EF92FF920F931F93DF931B
:10016000CF9300D0CDB7DEB769837A830E94960023
:1001700069817A81462F572F8A0102C00E94A00010
:10018000F80181918F018823C9F70F900F90CF91CB
:10019000DF911F910F91FF90EF90089582E080937F
:1001A000002182E090E00E94790088E30E9496009E
:1001B0008CE00E94960086E00E94960081E00E94FA
:1001C000960082E090E00E9479000895CF93DF933B
:1001D000EC0164E670E00E9445016115710531F49F
:1001E00080E20E94A00020E030E006C0862F805D03
:1001F0000E94A00021E030E0CE0164E670E00E94A1
:100200004501EC016AE070E00E944501611571054D
:1002100029F42115310511F480E202C0862F805D9A
:100220000E94A000CE016AE070E00E944501805D5E
:100230000E94A000DF91CF910895CF93DF93C5E690
:10024000D0E088818860888382E390E00E94790012
:100250008881877F8883DF91CF9108951F9316B39C
:100260001F701F3029F408C081E090E00E947900DF
:1002700086B38F708F30C1F7812F1F9108958FEF54
:100280008ABB8BBB80E090E00895AA1BBB1B51E1A9
:1002900007C0AA1FBB1FA617B70710F0A61BB70BF6
:1002A000881F991F5A95A9F780959095BC01CD019B
:0602B0000895F894FFCF51
:00000001FF
